{
  "contractName": "Vending_Machine",
  "abi": [
    {
      "inputs": [],
      "stateMutability": "nonpayable",
      "type": "constructor"
    },
    {
      "inputs": [
        {
          "internalType": "address",
          "name": "",
          "type": "address"
        }
      ],
      "name": "donutBalances",
      "outputs": [
        {
          "internalType": "uint256",
          "name": "",
          "type": "uint256"
        }
      ],
      "stateMutability": "view",
      "type": "function",
      "constant": true
    },
    {
      "inputs": [],
      "name": "owner",
      "outputs": [
        {
          "internalType": "address",
          "name": "",
          "type": "address"
        }
      ],
      "stateMutability": "view",
      "type": "function",
      "constant": true
    },
    {
      "inputs": [],
      "name": "getVendingMachineBalance",
      "outputs": [
        {
          "internalType": "uint256",
          "name": "",
          "type": "uint256"
        }
      ],
      "stateMutability": "view",
      "type": "function",
      "constant": true
    },
    {
      "inputs": [
        {
          "internalType": "uint256",
          "name": "amount",
          "type": "uint256"
        }
      ],
      "name": "restock",
      "outputs": [],
      "stateMutability": "nonpayable",
      "type": "function"
    },
    {
      "inputs": [
        {
          "internalType": "uint256",
          "name": "amount",
          "type": "uint256"
        }
      ],
      "name": "purchase",
      "outputs": [],
      "stateMutability": "payable",
      "type": "function",
      "payable": true
    },
    {
      "inputs": [],
      "name": "getMsgValue",
      "outputs": [
        {
          "internalType": "uint256",
          "name": "",
          "type": "uint256"
        }
      ],
      "stateMutability": "payable",
      "type": "function",
      "payable": true
    }
  ],
  "bytecode": "0x608060405234801561001057600080fd5b50336000806101000a81548173ffffffffffffffffffffffffffffffffffffffff021916908373ffffffffffffffffffffffffffffffffffffffff160217905550673782dace9d900000600160003073ffffffffffffffffffffffffffffffffffffffff1673ffffffffffffffffffffffffffffffffffffffff168152602001908152602001600020819055506108a0806100ac6000396000f3fe6080604052600436106100555760003560e01c80638da5cb5b1461005a5780639a020d8a14610085578063a17042cc146100c2578063c21a702a146100e0578063e7644d3414610109578063efef39a114610134575b600080fd5b34801561006657600080fd5b5061006f610150565b60405161007c919061048a565b60405180910390f35b34801561009157600080fd5b506100ac60048036038101906100a791906104d6565b610174565b6040516100b9919061051c565b60405180910390f35b6100ca61018c565b6040516100d7919061051c565b60405180910390f35b3480156100ec57600080fd5b5061010760048036038101906101029190610563565b610194565b005b34801561011557600080fd5b5061011e61027b565b60405161012b919061051c565b60405180910390f35b61014e60048036038101906101499190610563565b6102c2565b005b60008054906101000a900473ffffffffffffffffffffffffffffffffffffffff1681565b60016020528060005260406000206000915090505481565b600034905090565b60008054906101000a900473ffffffffffffffffffffffffffffffffffffffff1673ffffffffffffffffffffffffffffffffffffffff163373ffffffffffffffffffffffffffffffffffffffff1614610222576040517f08c379a000000000000000000000000000000000000000000000000000000000815260040161021990610613565b60405180910390fd5b80600160003073ffffffffffffffffffffffffffffffffffffffff1673ffffffffffffffffffffffffffffffffffffffff16815260200190815260200160002060008282546102719190610662565b9250508190555050565b6000600160003073ffffffffffffffffffffffffffffffffffffffff1673ffffffffffffffffffffffffffffffffffffffff16815260200190815260200160002054905090565b671bc16d674ec80000816102d691906106b8565b341015610318576040517f08c379a000000000000000000000000000000000000000000000000000000000815260040161030f90610784565b60405180910390fd5b80600160003073ffffffffffffffffffffffffffffffffffffffff1673ffffffffffffffffffffffffffffffffffffffff16815260200190815260200160002054101561039a576040517f08c379a000000000000000000000000000000000000000000000000000000000815260040161039190610816565b60405180910390fd5b80600160003073ffffffffffffffffffffffffffffffffffffffff1673ffffffffffffffffffffffffffffffffffffffff16815260200190815260200160002060008282546103e99190610836565b9250508190555080600160003373ffffffffffffffffffffffffffffffffffffffff1673ffffffffffffffffffffffffffffffffffffffff168152602001908152602001600020600082825461043f9190610662565b9250508190555050565b600073ffffffffffffffffffffffffffffffffffffffff82169050919050565b600061047482610449565b9050919050565b61048481610469565b82525050565b600060208201905061049f600083018461047b565b92915050565b600080fd5b6104b381610469565b81146104be57600080fd5b50565b6000813590506104d0816104aa565b92915050565b6000602082840312156104ec576104eb6104a5565b5b60006104fa848285016104c1565b91505092915050565b6000819050919050565b61051681610503565b82525050565b6000602082019050610531600083018461050d565b92915050565b61054081610503565b811461054b57600080fd5b50565b60008135905061055d81610537565b92915050565b600060208284031215610579576105786104a5565b5b60006105878482850161054e565b91505092915050565b600082825260208201905092915050565b7f4f6e6c7920746865206f776e65722063616e20726573746f636b20746869732060008201527f6d616368696e6500000000000000000000000000000000000000000000000000602082015250565b60006105fd602783610590565b9150610608826105a1565b604082019050919050565b6000602082019050818103600083015261062c816105f0565b9050919050565b7f4e487b7100000000000000000000000000000000000000000000000000000000600052601160045260246000fd5b600061066d82610503565b915061067883610503565b9250827fffffffffffffffffffffffffffffffffffffffffffffffffffffffffffffffff038211156106ad576106ac610633565b5b828201905092915050565b60006106c382610503565b91506106ce83610503565b9250817fffffffffffffffffffffffffffffffffffffffffffffffffffffffffffffffff048311821515161561070757610706610633565b5b828202905092915050565b7f596f75206d75737420706179206174206c65617374203220657468657220706560008201527f7220646f6e757400000000000000000000000000000000000000000000000000602082015250565b600061076e602783610590565b915061077982610712565b604082019050919050565b6000602082019050818103600083015261079d81610761565b9050919050565b7f4e6f7420656e6f75676820646f6e75747320696e2073746f636b206f2066756c60008201527f66696c6c20726571756573740000000000000000000000000000000000000000602082015250565b6000610800602c83610590565b915061080b826107a4565b604082019050919050565b6000602082019050818103600083015261082f816107f3565b9050919050565b600061084182610503565b915061084c83610503565b92508282101561085f5761085e610633565b5b82820390509291505056fea264697066735822122037c905758f12d8734eaf16bb7065dd82f9be11a19396d339d1293151e5fe23c464736f6c634300080c0033",
  "immutableReferences": {},
  "source": "// SPDX-License-Identifier: MIT\npragma solidity >=0.4.22 <0.9.0;\n\ncontract Vending_Machine {\n    address public owner;\n    mapping (address => uint) public donutBalances;\n\n    constructor() {\n        owner = msg.sender;\n        donutBalances[address(this)] = 4000000000000000000;\n    }\n\n    function getVendingMachineBalance() public view returns (uint){\n        return donutBalances[address(this)];\n    }\n\n    function restock(uint amount) public {\n        require(msg.sender == owner,\"Only the owner can restock this machine\");\n        donutBalances[address(this)] += amount;\n    }\n\n    function purchase(uint amount) public payable {\n        require(msg.value >= amount * 2 ether,\"You must pay at least 2 ether per donut\");\n        require(donutBalances[address(this)]  >= amount ,\"Not enough donuts in stock o fulfill request\");\n        donutBalances[address(this)] -= amount;\n        donutBalances[msg.sender] += amount;\n    }\n\n    function getMsgValue() public payable returns(uint256){\n        return msg.value;\n    }\n}",
  "sourcePath": "/Users/ibrahim/Projects/smart_contract/vending-machine/contracts/Vending_Machine.sol",
  "compiler": {
    "name": "solc",
    "version": "0.8.12+commit.f00d7308.Emscripten.clang"
  },
  "schemaVersion": "3.4.5",
  "updatedAt": "2022-03-14T20:43:16.335Z",
  "networkType": "ethereum",
  "devdoc": {
    "kind": "dev",
    "methods": {},
    "version": 1
  },
  "userdoc": {
    "kind": "user",
    "methods": {},
    "version": 1
  }
}